:1000000064EF09F068961200046ED8CF05F0E0CFD7
:1000100006F00001E9CF0CF0EACF07F0E1CF08F0DD
:10002000E2CF09F0D9CF0AF0DACF0BF0F3CF12F01C
:10003000F4CF13F0FACF14F000C00EF001C00FF0AF
:1000400002C010F003C011F0A0AA2AEF00F0A1BA7C
:100050008FEF06F00EC000F00FC001F010C002F0EC
:1000600011C003F00CC0E9FF07C0EAFF078E08C00B
:10007000E1FF09C0E2FF0AC0D9FF0BC0DAFF12C0DE
:10008000F3FF13C0F4FF14C0FAFF045006C0E0FFF2
:1000900005C0D8FF1000F2CF0DF0F29EF76AB00F46
:1000A000F66E000EF7220900F5500DBEF28E12001A
:1000B000280C0106F76AC40FF66E000EF72209003D
:1000C000F55012000003FFFFFFFFFFFFFFFFFFFFE0
:1000D000FFFFFFFFF76AE40FF66E000EF72209003C
:1000E000F550120040001000000000000000000069
:1000F0000000000000000000000000000000000000
:100100000000000007AE03D0F2CF0DF0F29EF76AB8
:10011000260FF66E010EF7220900F55007AE02D049
:100120000DBEF28E120040000B0000000000000027
:1001300000000000000000000000000000000000BF
:10014000000000000000F76A560FF66E010EF7225D
:100150000900F55012000600FF0901A1011901294B
:10016000081580257F7508950F81021901290875EA
:1001700008950A9102C0F76A860FF66E010EF72203
:100180000900F55012000000F76A980FF66E010E94
:10019000F7220900F55012002000F76AAA0FF66E48
:1001A000010EF7220900F550120009022900010191
:1001B0000080320904000002030000000921000150
:1001C00000012220000705810310000A0705010332
:1001D0000B000A00F76AE40FF66E010EF722090021
:1001E000F55012000100F76AF60FF66E010EF722C5
:1001F0000900F55012001200F76A080FF66E020EA1
:10020000F7220900F5501200120110010000004011
:1002100061042000000101020001F76A2A0FF66E56
:10022000020EF7220900F5501200040309040E0320
:1002300046004100540049004800200014034100DA
:100240004C0050004100520053004C0041004E0051
:100250006D92699468A402D06894FCD79BEF06F075
:10026000400E0401016F040E036F100E026F880E22
:10027000006F046B040E076F500E066F0001120032
:1002800070A002D0EDDF7090689AA2EF06F06A6A63
:100290006892A7EF06F0629161BF6281619F615130
:1002A000100803E2000E016E20D062A110D0036A94
:1002B0006151F2CF63F0F29EFDDE63BFF28EFF0864
:1002C00002E1000E01D0010E016E0FD00ED0036AC4
:1002D0006151F2CF63F0F29EEDDE63BFF28EFF0854
:1002E00002E1000E01D0010E016E1200036A60519E
:1002F000700FE96E0F0E0320EA6EEF6A60C061F0C6
:10030000CADF015218E06051080DF350626BE96ECC
:10031000040E6225EA6EEF6A6051080DF350626BBD
:10032000616F040E6127000E622361C0E9FF040EB5
:100330006225EA6EEF6A1200010E5F6E5F500F08D1
:1003400005E35FC060F0D2DF5F2AF8D71200256AAC
:10035000246A556A55520AE1036A5550260FE96E20
:10036000000E0320EA6EEF6A552AF4D7186A010ED0
:10037000196E176A12006A6A686A9F0E6B6E3D0EEC
:10038000696E6E6AD9DFE3DF160E706E68A602D062
:1003900039DEFCD76D9864DF030E1F6EACEF06F0FC
:1003A000698468986D82B1EF06F0689CB6EF06F03C
:1003B0005AC020F0120020681200586A24502510FC
:1003C00046E058503F0843E31A50FC0F2EE2040F5A
:1003D00032EF02F023C003F02250F2CF5AF0F29E27
:1003E000DCDE5ABEF28E596E20D023C003F02250BC
:1003F000F2CF5AF0F29EA7DE5ABEF28E596E15D099
:1004000023C003F02250F2CF5AF0F29E06DF5ABE0C
:10041000F28E596E0AD023C003F02250F2CF5AF068
:10042000F29EEADE5ABEF28E596E222AD8B4232AF0
:100430002450D8B4250624065850582A036A500F71
:10044000E96E040E0320EA6E59C0EFFFB7D72450BF
:10045000251004E15850400801E0176A58C05AF0CE
:10046000A7DF1200E824F76AF7367F0FF66E040E56
:10047000F7220A00F550FA6E0800F550F96ED40321
:10048000EA0300041604236A226A1A6A040113515B
:10049000010A000109E0030A0DE0010A0FE0220A47
:1004A00029E0030A4DE078D0256A120E246E030E6F
:1004B0001A6E74D0256A290E246E70D0020E1A6E40
:1004C000036A040112511B0FE96E000E0320EA6E4D
:1004D000236AEFCF22F023C003F02250F2CF58F06E
:1004E000F29E00019ADE58BEF28E036A246E03C0AB
:1004F00025F054D0D89004011235036AF2CF58F099
:10050000F29E000170DE0900F5CF03F058BEF28EB6
:10051000226E03C023F0223C02D023520FE023C0FE
:1005200003F02250F2CF58F0F29E37DE58BEF28E22
:10053000036A246E03C025F031D002D03CDF3DD0E9
:10054000D89004011435036AF2CF58F0F29E0001EE
:1005500012DE0900F5CF03F058BEF28E226E03C002
:1005600023F0223C02D0235215E0010E1A6ED890DF
:1005700004011435036AF2CF58F0F29E000104DE44
:100580000900F5CF03F058BEF28E246E03C025F0AB
:1005900005D002D010DF11D00EDF0FD004011753A9
:1005A00008E1255203E12450165D03E2256A16C4D2
:1005B00024F0010E176E000100DF1200575204E113
:1005C000040E1F6EB9DED1D0050E1F6E040E5A6EDA
:1005D000900E596E010E586E58500F08D8A0C5D015
:1005E00058C060F083DE5B6A036A5850F2CF5FF058
:1005F000F29E60DD5FBEF28EFF0859E0040E5B6E76
:10060000D8905834036AF2CF5FF0F29E7BDD090088
:10061000F5CF03F05FBEF28E5C6E03C05DF0585004
:10062000080DF350606B5F6E010E5F24016E000ECB
:100630006021036E01C0E9FF040E0324EA6E5CC072
:10064000EFFF5850080DF350606B5F6E020E5F2491
:10065000016E000E6021036E01C0E9FF040E032449
:10066000EA6E5AC0ECFFED5259C0EFFFD8905834F3
:10067000036AF2CF5FF0F29E45DD0900F5CF03F08B
:100680005FBEF28E592603505A22880E5E6E5DA020
:1006900001D05E805DA201D05E825850080DF350FB
:1006A000606BE96E040E6025EA6E5EC0EFFF036AC0
:1006B0005850F2CF5FF0F29EFDDC5FBEF28EFF0875
:1006C00039E05B825850080DF350606B5F6E040E8A
:1006D0005F26000E6023020E5F24016E000E602173
:1006E000036E01C0E9FF040E0324EA6E5AC0ECFF5A
:1006F000ED5259C0EFFFD8905834036AF2CF5FF043
:10070000F29EE8DC0900F5CF03F05FBEF28E5926B9
:1007100003505A225850080DF350606B5F6E040E60
:100720005F26000E60235FC0E9FF040E6025EA6EBD
:10073000400EEF6E5B50060802E10E0E5B6E036A20
:100740005850F2CF5FF0F29EB5DC5FBEF28E01082A
:1007500001E05B88036A5850700FE96E0F0E0320AA
:10076000EA6E5BC0EFFF582A37D704EF04F00401AC
:100770001151000A00010DE0010A14E0020A1FE015
:10078000060A29E0030A2EE00E0A2EE0010A32E0F2
:1007900040D019C050F40401516B020E5A6E000192
:1007A00007DE38D00401122D07D0010E19165A6A3F
:1007B0000001FEDD03D004010001FDDD2BD00401AA
:1007C000122D06D019825A6A0001F2DD03D004010D
:1007D0000001F1DD1FD0020E176E12C421F05A6A1B
:1007E000E7DD18D050DE16D018C050F4010E5A6E56
:1007F000DFDD10D004011251010809E312C418F022
:1008000012C457F00001DAD65A6AD2DD04010001A1
:1008100001D0D1DD17EF05F018C057F004011151D8
:10082000000A000107E00A0A0DE0010A2DE00D0AA6
:100830003DE03ED00401506B516B020E5A6E000138
:10084000B7DD37D057521EE0010E575C036AF2CF76
:1008500058F0F29EBFDC58BEF28E016E0401145DAA
:10086000D8A002D000010ED0036A1451260FE96E01
:10087000000E0320EA6EEFCF50F4010E5A6E000115
:1008800097DD01D098DD15D057520EE0036A0401C0
:100890001451260FE96E000E0320EA6E12C4EFFF1A
:1008A0005A6A000185DD01D086DD03D0ECDD01D080
:1008B00082DD17EF05F0589057BE5880579E58A01C
:1008C00011D05750080DF3505A6A596E040E59262C
:1008D000000E5A2259C0E9FF040E5A24EA6E880E0F
:1008E000EF6E09D05750080DF3505A6AE96E040EA6
:1008F0005A24EA6EEF6ADDEF04F0589057BE588034
:10090000579E58A011D05750080DF3505A6A596E8F
:10091000040E5926000E5A2259C0E9FF040E5A242B
:10092000EA6E840EEF6E0AD05750080DF3505A6AE3
:10093000E96E040E5A24EA6E840EEF6EE3EF04F0C3
:10094000589057BE5880579E58A011D05750080D48
:10095000F3505B6A5A6E040E5A26000E5B225AC090
:10096000E9FF040E5B24EA6EEFCF59F00AD057502E
:10097000080DF3505B6AE96E040E5B24EA6EEFCF5C
:1009800059F059AE02D059B402D0000E01D0010E78
:10099000016EEDEF04F014C461F07DDC015228E03B
:1009A00004011151010A000105E0020A09E0030AED
:1009B0000DE01DD014C457F07ED75A6AF9DC18D068
:1009C00014C457F09AD75A6AF3DC12D00401506B62
:1009D000516B14C457F00001B3D7015204E0010E6B
:1009E0000401506F0001020E5A6EE2DC01D0E3DC1C
:1009F00017EF05F0040111510001DDDC17EF05F0E0
:100A0000176A040110517F0B000A000107E0010A78
:100A100007E0030A07E0230A07E008D0A8D607D0BA
:100A2000FBD605D0B8D703D0E5D701D0C4DC3FEF63
:100A300006F05750080DF3505D6AE96E040E5D2410
:100A4000EA6EEFCF59F05850020806E159AC02D0D7
:100A5000586A02D0010E586E5850030813E1840EF4
:100A6000596E5750080DF3505D6A5C6E040E5C269B
:100A7000000E5D225CC0E9FF040E5D24EA6E840E68
:100A8000EF6E07D0582C03D0C80E596E02D0880ED6
:100A9000596ED8905734036AF2CF5CF0F29E82EC24
:100AA00000F00900F5CF03F05CBEF28E5A6E03C071
:100AB0005BF05750080DF3505D6A5C6E010E5C24CC
:100AC000016E000E5D20036E01C0E9FF040E0324D9
:100AD000EA6E5AC0EFFF5BA001D059805BA201D043
:100AE00059825750080DF3505D6AE96E040E5D247B
:100AF000EA6E59C0EFFF1200036A5C50700FE96E96
:100B00000F0E0320EA6EEF5212E05C50080DF35016
:100B10005E6A5D6E040E5D26000E5E225DC0E9FF1A
:100B2000040E5E24EA6EEFCF5FF05FAE02D0000EDF
:100B300001D0010E016E120057C05CF0DDDF0152E2
:100B400063E05750080DF3505D6A5C6E040E5C263E
:100B5000000E5D22010E5C24016E000E5D20036E0E
:100B600001C0E9FF040E0324EA6E58C0EFFF5A509B
:100B7000020817E15750080DF3505D6A5C6E040ED1
:100B80005C26000E5D225CC0E9FF040E5D24EA6E67
:100B9000EFCF5BF05BAC02D05A6A02D0010E5A6E06
:100BA00013D05A50040810E15750080DF3505D6AF5
:100BB000E96E040E5D24EA6EEFCF5BF05BAC03D010
:100BC000010E5A6E01D05A6A5A2C03D0C80E5B6EC1
:100BD00002D0880E5B6E59A001D05B8059A201D073
:100BE0005B825750080DF3505D6A5C6E040E5C2604
:100BF000000E5D225CC0E9FF040E5D24EA6E5BC05E
:100C0000EFFF010E016E02D0000E016E120057526E
:100C100000E1120058C06EFF585203E0040E1F6E30
:100C200002D0020E1F6E1AEF06F0186A176A21C072
:100C300058F0F0D727EF06F0575209E1172C03D0F0
:100C4000DDEC01F004D017500208D8B4EED7120042
:100C50001E30556E553255321F0E55161E5241E14B
:100C6000040100513C0B566E430E001756503408D9
:100C70001EE10451800B01E0046B0001C1D66D98A8
:100C8000203C05D0576A030E586ED3DE0ED0576A4B
:100C9000020E586ECEDE2050FE0807E0576A596AF1
:100CA00020C058F0040E5A6E47DF18D00401565089
:100CB000040815E1576A0001AADF576A020E586E50
:100CC000B8DE2050FE080AE0203C01D007D0576A69
:100CD000596A20C058F0010E5A6E2EDF04011CD054
:100CE00000011E5004080EE12068576AA5DF203C71
:100CF00001D007D0576A596A20C058F0020E5A6EC8
:100D00001BDF09D01EB404D055C057F080DF03D0DC
:100D100055C057F091DF04010001C0EF06F0A19A21
:100D20001F52D8B433D06852D8B430D068A403D09E
:100D300069B428EF01F06DB229D068AA03D069BA6E
:100D400040EF01F068A203D069B247EF01F068A05C
:100D500003D069B0BBEF01F068A803D069B8D0EF49
:100D600001F068AC03D069BCD5EF01F0546A68A605
:100D700008D069A606D06CCF1EF002EC00F068D750
:100D800001D004D05450542A0308F1E22AEF00F0B5
:100D900055534220484944204261736C61646900A4
:100DA000EA6A460EE96EEF500EE00F0E016E006A21
:100DB000002EFED7012EFBD78F0E006E002EFED721
:100DC0000000EF2EF2D712004DB002D08C9A01D065
:100DD0008C8A959A4DB202D08C9C01D08C8C959CBB
:100DE0004DB402D08C9E01D08C8E959E4DB602D013
:100DF0008A9001D08A80939000008C889598070E85
:100E0000006E002EFED700D08C98959812004E6A86
:100E1000958A000E83BA010E4E12958C000E83BC8B
:100E2000010E006ED890003600504E12958E000EC6
:100E300083BE010E006E00360036FC0E0016005018
:100E40004E129380000E81B0010E006E0036003607
:100E50000036F80E001600504E124EC001F012007F
:100E6000958A958C958E93808C86959600008C88BB
:100E700095980000CCDF01C04DF08C98959800004B
:100E80008C889598030E006E002EFED700D0BFDF31
:100E900001C04CF08C989598959A959C959E93904E
:100EA0004D38006EF00E001600504C10016E5FEFD2
:100EB00007F09598959495968C949594D1D701C008
:100EC0004CF001BEFBD74A5202E18C9401D08C84D5
:100ED000959400008C96959600008C9895984B38C8
:100EE0004C6E0F0E4C164CC04DF06EDF4B500F0B7E
:100EF0004C6E4D6E69DF1200959A959C959E93906D
:100F00009598959495968C9495948C9695968C98A6
:100F100095980F0E466E44DF010E436E4350030852
:100F200008E3030E4D6E50DF050E466E39DF432A8F
:100F3000F5D7020E4D6E48DF050E466E31DF436A6F
:100F4000435003080FE3036A4350F2CF44F0F29E8C
:100F50004BEC00F044BEF28E446E4A6A4B6EA9DF41
:100F6000432AEED792EF09F0472C01D003D0400E70
:100F7000486E01D0486A010E465C482648508009F8
:100F8000496E4A6A4B6E95DF12004550070A07E02A
:100F90000B0A0AE0060A10E0020A14E018D0010E5B
:100FA000466E476EE1DF18D04A6A010E4B6E81DF54
:100FB000020E466EF5DE10D0010E466E020E476E32
:100FC000D3DF0AD04A6A100E4B6E73DF05D0010ED4
:100FD0004A6E45C04BF06DDF12000900F5520CE07F
:100FE000F6CF43F0F7CF44F0F5CF45F0CEDF43C066
:100FF000F6FF44C0F7FFF1D79AEF09F06D6A696A0E
:10100000080E6F6E94503009946E1F6A166AF2BE15
:10101000168EF29EA7EC01F016BEF28E1200EEDFE5
:101020009BEF09F0016603D0026602D007D0022AC6
:1010300000C0EEFF012EFCD7022EFAD7A3EF09F075
:10104000166AF2BE168EF29EA7EC01F016BEF28E64
:101050006D6A140E6F6E696A6D86010E1F6E37EF32
:1010600008F0938881A804D06DB601D0E9D703D0E9
:101070006DA601D0C3DF1F2C0BD06DBA09D0686AF2
:10108000696AA08AC00EF212110E696E020E1F6EFE
:10109000A4EF09F01850016E12009388436A81B8DA
:1010A000432AF8DF01C044F0445205E0939E8A8E43
:1010B000939C8A9C04D0939E8A9E939C8A8C4352D4
:1010C00002E0275200E1435202E1275200E044527D
:1010D00002E0285200E1445202E1285200E043C0FD
:1010E00027F044C028F0A5EF09F0166AF2BE168E6C
:1010F000F29E43C05CF000DD16BEF28E015242E06B
:101100004350080DF3504C6A4B6E040E4B26000EF4
:101110004C22020E4B24016E000E4C20036E01C0C7
:10112000E9FF040E0324EA6EECCF4AF0ED52EFCF54
:1011300049F04AC0EAFF49C0E9FF45C0E2FF44C0A8
:10114000E1FF47C002F046C001F0015202E0022A6E
:1011500002D0025206E0E6CFEEFF012EFCD7022EAF
:10116000FAD7166AF2BE168EF29E43C057F047C0F9
:1011700059F046C058F048C05AF0DEDC16BEF28E78
:10118000015002D0000E016EBAEF09F0036A43501D
:10119000700FE96E0F0E0320EA6EEF520DE0435020
:1011A000080DF350456A446EE96E040E4524EA6E5C
:1011B000EFCF46F046AE02D0000E01D0010E016E18
:1011C000C0EF09F04850080DF350536A526E020EFA
:1011D0005224016E000E5320036E01C0E9FF040E7D
:1011E0000324EA6EECCF4EF0ED52EFCF4DF04850B5
:1011F000080DF350536A526E010E5224016E000E18
:101200005320036E01C0E9FF040E0324EA6E516A05
:10121000EFCF50F04850080DF350536AE96E040EBA
:101220005324EA6EEFCF4FF04FA001D051804FA270
:1012300001D0518251504C5C08E303E14B50505CAB
:1012400004E251C04CF050C04BF04AC0EAFF49C024
:10125000E9FF4EC0E2FF4DC0E1FF4CC002F04BC0C1
:1012600001F0015202E0022A02D0025206E0E6CF6B
:10127000EEFF012EFCD7022EFAD74BC001F04CC076
:1012800002F04EEF09F043C048F045C04AF044C0B8
:1012900049F047C04CF046C04BF094D702C047F02D
:1012A00001C046F0166AF2BE168EF29E43C057F099
:1012B000020E586E19EC05F016BEF28E46C001F013
:1012C00047C002F0CBEF09F0F86AD09E078EC150FC
:1012D000C00B0F09C16E070EB46E1B6A040E1C6EA4
:1012E000120E1D6E276A286A420E296E750E2A6E2E
:1012F000740E2B6E2C6E6F0E2D6E6E0E2E6E610E9A
:101300002F6E200E306E420E316E610E326E730EF5
:10131000336E690E346E6C0E356E640E366E690E69
:10132000376EEAD50C0E456E30DE900EF66E0D0E61
:10133000F76E53D674D6EA6A380EE96E006A026A0E
:101340000A0E016E6FD68DD6A8D6A4DE0152D8B48F
:1013500069D0938A81BA11D0938A81AAFDD7010EF0
:10136000436E456A290E446E476A0F0E466E020EA2
:10137000486EBBD6C80E466E13DD010E436E06D70F
:10138000015250E0010E436E456A380E446E476AC2
:101390000A0E466E78D7010E466E476EE5DD0C0EDE
:1013A000456EF3DD426A425009083CE3036A42504D
:1013B000380FE96E000E0320EA6EEFCF43F0435082
:1013C000400803E243505A0808E24350600803E231
:1013D00043507A0802E2000E01D0010E000A14E127
:1013E000036A4250380FE96E000E0320EA6EEFCF19
:1013F00043F043502F0803E24350390802E2000E45
:1014000001D0010E000A0CE0036A4250380FE96E69
:10141000000E0320EA6EEFCF43F043C045F0B5DD88
:08142000422AC1D790D7030056
:020000040030CA
:0E0000002CCE3E1E0087A1000FC00FE00F4067
:00000001FF
;PIC18F4550
;CRC=D609  CREATED="19-Mar-21 12:59"
